:100000000C9418010C9428020C9448020C94670379
:100010000C9407030C9435010C9435010C943501B4
:100020000C9435010C9435010C9430050C94350179
:100030000C9435010C949C0B0C9435010C943501F7
:100040000C9435010C9435010C9435010C94350158
:100050000C94350105A84CCDB2D44EB93836A9025E
:100060000C50B9918688083CA6AAAA2ABE000000B6
:10007000803F0A0A232323232320454D4552474529
:100080004E43592053485554444F574E2023232361
:1000900023230A00232323232320414C4C204F50A9
:1000A00045524154494F4E532053544F50504544AC
:1000B00020544F2050524556454E5420414E592011
:1000C00044414D414745212023232323230A000A8D
:1000D00023232320454E434F44455220284F52208E
:1000E0004D4F544F5229204D414C46554E43544993
:1000F0004F4E21202323230A004166666563746501
:1001000064206368616E6E656C3A004C454654002D
:10011000524947485400210A0A28732E20746173FB
:100120006B5F6D6F746F72436F6E74726F6C2829A2
:100130002066756E6374696F6E20696E205250364A
:100140004C696221290A00596F75206E656564202B
:10015000746F20636865636B20456E636F646572BE
:100160002F4D6F746F7220617373656D626C7920AF
:10017000286F7220796F757220736F667477617261
:1001800065292E0A0A000A0A232323204D4F544FC3
:1001900052204F56455243555252454E5420232328
:1001A000230A000A0A28732E207461736B5F6D6F37
:1001B000746F72436F6E74726F6C28292066756E4F
:1001C0006374696F6E20696E205250364C696221EB
:1001D000290A00596F75206E65656420746F20636D
:1001E0006865636B204D6F746F7220617373656D0A
:1001F000626C7920286F7220796F757220736F6638
:100200007477617265292E0A0A0054686520526F5E
:10021000626F74206E6565647320746F2062652060
:100220007265736574746564206E6F772E0A0A00B8
:1002300011241FBECFE5D8E0DEBFCDBF10E0A0E6A1
:10024000B0E0EEE7F0E202C005900D92AA36B107E9
:10025000D9F711E0AAE6B0E001C01D92AF30B107B6
:10026000E1F70E942A0C0C943D100C9400000895B4
:1002700008950895089580919A00843010F01092A6
:100280009A00089584E080939A00089587B38C774C
:1002900087BB88B38C7788BB8091850083FF02C0C1
:1002A000BF9AC79A8091850084FF02C0B99AC19A0B
:1002B0008091850085FF02C0B89AC09A84B38F7878
:1002C00084BB85B38F7885BB24B33091850040E132
:1002D000349FC001112480779927282B24BB95B324
:1002E000982B95BB80919A00811104C081E0311157
:1002F00001C080E080939A000895809385000C945B
:100300004601C098B898000086B38170909185002E
:1003100095FF02C0B89AC09A0895AE98A6980000BA
:1003200083B380749091850092FF02C0A69AAE9A22
:10033000089590936200809361000895CF93809117
:10034000D2008333C0F00E948101C82F0E948D012A
:10035000909186009C1304C09091E300981749F097
:10036000C09386008093E300E0916100F091620009
:1003700009951092D200CF91089536990AC08064F1
:1003800087B986ED86B93699FECF349A24B135B156
:1003900002C020E030E0C9010895806487B986ED8D
:1003A00086B90895369953C080916F00833019F152
:1003B00020F4813081F0B8F406C0853061F118F185
:1003C0008630D9F530C084B195B19093E700809321
:1003D000E60086E42FC084B195B19093EC00809341
:1003E000EB0085E427C084B195B19093DD00809344
:1003F000DC0083E41FC084B195B19093A600809384
:10040000A50082E417C084B195B19093CC0080938D
:10041000CB0080E40FC084B195B19093DA00809353
:10042000D90081E407C084B195B19093A400809372
:10043000A30087E487B986ED86B980916F00863086
:1004400019F410926F0008958F5F80936F000895E4
:100450001F920F920FB60F9211248F939F9380914A
:10046000E1009091E20001969093E2008093E10018
:100470008091D7009091D80001969093D8008093F6
:10048000D7009F918F910F900FBE0F901F901895DE
:100490001F920F920FB60F9211248F939F9380910A
:1004A000D3009091D40001969093D4008093D30010
:1004B0008091AD009091AE0001969093AE00809334
:1004C000AD009F918F910F900FBE0F901F901895C8
:1004D00090936400809363000895893C08F088EC51
:1004E00080938B0010928C00693C08F068EC60935C
:1004F000890010928A00089580936A00282F215065
:1005000091E0223008F090E090936E00813041F04D
:1005100021E030E0833011F020E030E0C90102C07A
:1005200081E090E080936D000895292F221F2227FB
:10053000221F20936E00771F7727771F70936D001F
:100540001816190614F0819561950C946D0290911E
:100550008400937081E009F080E0089510928C008F
:1005600010928B0010928A001092890010929600CF
:10057000109295001092D1001092D00080918400CA
:100580008E7F8D7F809384008093E500E0916300EF
:10059000F09164000994633D08F062ED6093AB0054
:1005A0001092AC00833D08F082ED80939B00109286
:1005B0009C00089580936C0060936B0080936E00A4
:1005C00060936D00882311F0AA9A01C0AA9866234F
:1005D00011F0AB9A0895AB98089503C099B790684D
:1005E00099BF909190009111F9CF8F7320E4829F71
:1005F000C00111246F73862B90639093B000809399
:10060000AF0080918F00806480938F0008951F92C7
:100610000F920FB60F9211248F939F9380916000D9
:100620008230B0F5809170008823D1F08C3338F49B
:100630008091C9009091CA0096FF07C008C08091C0
:10064000C9009091CA0096FF02C0979803C082B378
:10065000805882BB8091700081508093700030C0C0
:10066000809190009798882359F18091C9009091CA
:10067000CA00880F991F9093CA008093C90088E729
:10068000809370008091900081508093900018C0FA
:1006900080919400882391F080918F0080FD05C0A7
:1006A00088B390E4892788BB03C085B3805885BB95
:1006B0008091940081508093940002C0C69AAF9AB2
:1006C0009F918F910F900FBE0F901F9018951F92C2
:1006D0000F920FB60F9211248F9380916000833098
:1006E00011F0863079F480918F0084FD0BC08091E9
:1006F0008F0085FF07C0B29905C08091E4008F5F2D
:100700008093E40086B380918F008D7F80938F006B
:100710008F910F900FBE0F901F90189590936600C9
:100720008093650008959093680080936700089512
:100730008091A7009091A800029708F441C1809190
:100740008F0084FD1CC180916000823009F468C074
:1007500030F4882371F0813009F017C111C0853061
:1007600009F4B0C0863009F4C6C0833009F00DC169
:100770006FC089B78F7789BF9798C69AAF9A05C11E
:100780008091900081112AC080918F0086FF14C053
:100790008091AF009091B0009093CA008093C900FF
:1007A0008EE08093900080918F008F7B80938F00EC
:1007B00089B7806889BF06C089B78F7789BF979846
:1007C000C69AAF9A80917100982F9F5F90937100A5
:1007D000843138F082E08093600003C089B780687C
:1007E00089BF80918F0083FFD0C0E0916500F091B8
:1007F00066008091E8009091E90009958091E800F9
:100800009091E90090939800809397001092E900EE
:100810001092E80080918F00877F80938F00B5C091
:1008200089B78F7789BF9798C69AAF9A109294002C
:100830001092E400109273001092720080918F0069
:100840008E7F806280938F0083E08093710079C0F7
:1008500080919400811110C080917100982F9F5F4A
:1008600090937100833040F089B7806889BF88E237
:1008700080939400109271008091C500882329F024
:100880008091E400823008F004C08091E40086305A
:1008900038F01092E40081E08093C50085E051C0FB
:1008A00080917200909173009C012F5F3F4F3093B5
:1008B0007300209372000E9708F467C01092C50071
:1008C00085E052C089B78F7789BF9798C69AAF9A4B
:1008D000109294001092E400109273001092720033
:1008E00080918F008160806280938F0083E080938D
:1008F000710086E026C080919400811110C0809123
:100900007100982F9F5F90937100833040F089B7FA
:10091000806889BF88E28093940010927100809172
:10092000CE00882329F08091E400823008F004C0D2
:100930008091E400863040F01092E40081E08093E2
:10094000CE008093600021C080917200909173006E
:100950009C012F5F3F4F30937300209372000E97DE
:10096000A0F01092CE0081E08093600089B78F776D
:1009700089BF9798C69AAF9A1092940006C01092B9
:10098000730010927200109271008091C5009091D6
:100990007400981306C0209175009091CE0029171D
:1009A00059F0809374008091CE0080937500E0919F
:1009B0006700F091680009951092A8001092A700B6
:1009C00008951092600089B78F7789BF9798C69A6B
:1009D000AF9A1092CE001092C500089589B78F7714
:1009E00089BF9798C69AAF9A1092CE001092C50010
:1009F00081E08093600008958E989698BB98C39884
:100A0000C698AF9808958E9A969ABB98C398089501
:100A10008E989698BB9AC39A08958E9A969ABB9A86
:100A2000C39A0895C49A80919A00843018F483E0A0
:100A300080939A000895C49880919A00843078F445
:100A4000811109C081E090E020918500211105C04D
:100A500080E090E002C081E090E080939A000895E9
:100A60001F920F920FB60F9211242F933F934F9323
:100A70005F936F937F938F939F93AF93BF93809177
:100A8000820090918300019690938300809382006E
:100A90008091DB008F5F8093DB008091DE00982FD8
:100AA0009F5F9093DE00893008F447C18091B300C6
:100AB00080FF09C08091B4009091B5000196909399
:100AC000B5008093B4008091B30081FF09C080918C
:100AD000B6009091B70001969093B7008093B6004E
:100AE0008091B30082FF09C08091B8009091B90055
:100AF00001969093B9008093B8008091B30083FF72
:100B000009C08091BA009091BB0001969093BB0000
:100B10008093BA008091B30084FF09C08091BC002B
:100B20009091BD0001969093BD008093BC00809190
:100B3000B30085FF09C08091BE009091BF0001966F
:100B40009093BF008093BE008091B30086FF09C0E0
:100B50008091C0009091C10001969093C100809354
:100B6000C0008091B30087FF09C08091C2009091BE
:100B7000C30001969093C3008093C2008091CF0080
:100B8000982F9F5F9093CF00893CE8F08091AD0053
:100B90009091AE009093E0008093DF008091D700A9
:100BA0009091D80090939E0080939D001092AE008B
:100BB0001092AD001092D8001092D70081E080937F
:100BC00099001092CF0040919A00433008F052C033
:100BD000423081F580918500811120C0809176009E
:100BE000909177009C012F5F3F4F309377002093C7
:100BF000760068EC70E00E94D60F892BD9F5213A77
:100C00003F4028F0B998C19810929A0029C087B344
:100C1000842787BB88B3842788BB2CC084FD02C08F
:100C2000B998C198109277001092760081E0809375
:100C30009A0020C08091760090917700813E2EE24C
:100C4000920798F0413049F410929A008091850003
:100C500084FD06C0B998C19803C082E080939A00D1
:100C6000109277001092760005C00196909377005D
:100C7000809376008091A7009091A800039748F494
:100C80008091A7009091A80001969093A80080936E
:100C9000A7008091C700873318F48F5F8093C70047
:100CA0008091D200843328F48091D2008F5F8093AA
:100CB000D2008091CD00982F9F5F9093CD0083301C
:100CC000D0F14091C800242F30E08091AB0090918A
:100CD000AC002817390759F02817390714F44F5F6B
:100CE00001C041504093C8008091C8008ABD409126
:100CF000EA00242F30E080919B0090919C002817FF
:100D0000390759F02817390714F44F5F01C04150D3
:100D10004093EA008091EA0088BD8091EA00811149
:100D200004C08091C800882319F082EA8FBD01C0F9
:100D30001FBC1092CD001092DE0030918F0033FD69
:100D400047C0809178009091790020917A002F5FC0
:100D500020937A00263198F096FD0AC095FF08C0CE
:100D60009093E9008093E800832F886080938F0040
:100D700080918F008F7E80938F0080E090E0409183
:100D80007B0036B3342732FF1FC0342F30953093A9
:100D90007B00273040F480918F008F7E80938F00FE
:100DA00080E090E004C0009711F02F3068F02091AF
:100DB0008F00206120938F0096FD02C0880F991F3D
:100DC00032FF816010927A009093790080937800CE
:100DD000BF91AF919F918F917F916F915F914F9153
:100DE0003F912F910F900FBE0F901F90189510926A
:100DF000DB009091DB009817E0F30895CF93DF9329
:100E0000EC0104C08AE00E94F70621972097D1F7F1
:100E1000DF91CF91089501C000000197E8F7089590
:100E2000C82FF89497980E94FC0410929C0010928E
:100E30009B001092AC001092AB00109296001092A2
:100E400095001092D1001092D0001092EA001092FA
:100E5000C8001ABC18BC1FBC0E941B0582E790E0AA
:100E60000E94120B84E990E00E94120B8C2F81509B
:100E70008230C0F48FEC90E00E94120B89EF90E07A
:100E80000E94120BC13019F48BE091E002C080E1A6
:100E900091E00E94120B86E191E00E94120B87E420
:100EA00091E00CC0C33061F486E891E00E94120B1F
:100EB00083EA91E00E94120B83ED91E00E94120BF5
:100EC0008AE092E00E94120BD6E3D09385000E9444
:100ED0004601CAE080E090E80E940B07C150D1F7BC
:100EE000109285000E944601CAE08FEF9FEF0E949A
:100EF0000B07C150D1F7E9CF8091C700823308F4C6
:100F000079C01092C7008091C400811140C08091C7
:100F1000EB009091EC008330934038F48091DC003A
:100F20009091DD0083309340F0F08091C6008F5F98
:100F30008093C6008AE08093C40010929C001092B7
:100F40009B001092AC001092AB0010929600109291
:100F500095001092D1001092D0008091840084609E
:100F6000809384000895809184008B7F8093840017
:100F700080919100853628F01092C6001092910061
:100F800006C08091C600833010F083E018C08091C5
:100F9000EB009091EC008639910598F480919D00CA
:100FA00090919E00892B69F480918B0090918C0028
:100FB000892B39F08091EA00873918F081E00E948E
:100FC00010078091DC009091DD008639910590F446
:100FD0008091DF009091E000892B61F4809189007D
:100FE00090918A00892B31F08091C800873910F0E8
:100FF00082E0E5CF80919900882309F492C1809125
:10100000C400811189C18091C600882331F080918C
:1010100091008F5F8093910002C0109291004091E7
:10102000840041FF39C02091E1003091E2008091BD
:101030008700909188002817390788F010928C005B
:1010400010928B00109296001092950010929C00C6
:1010500010929B00842F8D7F809384001DC020916F
:10106000E1003091E20080919F009091A00028174C
:10107000390790F080918B0090918C009695879520
:1010800090938C0080938B00469730F486E190E03B
:1010900090938C0080938B004091840040FF39C076
:1010A0002091D3003091D4008091A9009091AA00A2
:1010B0002817390788F010928A0010928900109240
:1010C000D1001092D0001092AC001092AB00842F8F
:1010D0008E7F809384001DC02091D3003091D40076
:1010E0008091D5009091D6002817390790F0809113
:1010F000890090918A009695879590938A008093B5
:101100008900469730F486E190E090938A008093BE
:10111000890080916E0090916C00891307C0209126
:101120006D0090916B00291709F451C040918B001C
:1011300050918C002091890030918A004115510511
:1011400019F42115310501F150938E0040938D0063
:101150003093A2002093A10010928C0010928B007B
:1011600010928A00109289001092AC001092AB008D
:1011700010929C0010929B00109296001092950085
:101180001092D1001092D0009FB5911120C06091B3
:101190006D000E94DA0220918D0030918E00309314
:1011A0008C0020938B008091A1009091A2009093DD
:1011B0008A00809389003695279530939600209376
:1011C0009500969587959093D1008093D0002091BB
:1011D0008B0030918C0080919D0090919E00A90120
:1011E000481B590BCA014091950050919600840FFD
:1011F000951F853A51E095070CF402C084EA91E00E
:101200009093960080939500809195009091960020
:101210008C359E4F34F48CE59EEF9093960080932E
:10122000950080919D0090919E00892B31F4232B95
:1012300021F4109296001092950080919500909163
:10124000960097FD019695958795833D91050CF441
:1012500002C082ED90E090939C0080939B0080916F
:101260009B0090919C0097FF04C010929C001092EC
:101270009B002091890030918A008091DF0090913D
:10128000E000A901481B590BCA014091D0005091C0
:10129000D100840F951F853A51E095070CF402C0E8
:1012A00084EA91E09093D1008093D0008091D000A7
:1012B0009091D1008C359E4F34F48CE59EEF909345
:1012C000D1008093D0008091DF009091E000892BC5
:1012D00031F4232B21F41092D1001092D000809190
:1012E000D0009091D10097FD019695958795833D0B
:1012F00091050CF402C082ED90E09093AC008093D5
:10130000AB008091AB009091AC0097FF08C01092A9
:10131000AC001092AB0003C081508093C4001092C7
:101320009900809184009091E500981739F080939E
:10133000E500E0916300F091640009940895D49A67
:10134000DC9A0895DC98D49808950E94D2010E94F6
:1013500098030E949E010C947C07FF920F931F93A9
:10136000CF93DF93182FF62E022F80918400816097
:101370008260809384009A01A0EBB2E00E94CA0FC1
:1013800024E630E040E050E00E94EA0FE901F90174
:10139000E456F109F093D600E093D500F093A00055
:1013A000E0939F003093AA002093A9003093880017
:1013B0002093870028323105B0F444E150E0509387
:1013C000AA004093A90050938800409387004AE008
:1013D00050E05093D6004093D5005093A000409326
:1013E0009F00C8E2D0E0612F812F0E946D028F2DF7
:1013F0000E947C021092E2001092E1001092D40050
:101400001092D300D093B200C093B100D093930058
:10141000C0939200809184008093E500E091630086
:10142000F09164000995011103C006C00E94A5094E
:101430000E94A7028823D1F3DF91CF911F910F91D2
:10144000FF900895EF92FF921F93CF93DF931F9227
:10145000CDB7DEB7162F7A0190918400916092602B
:10146000909384001092D6001092D5001092A000A4
:1014700010929F00873180F046EF5FEF481B5109C3
:10148000440F551F4E0D5F1D5093D6004093D5005D
:101490005093A00040939F00A701425051095093E0
:1014A000AA004093A900509388004093870098E2D7
:1014B000E916F104C0F444E150E05093AA004093CF
:1014C000A90050938800409387004AE050E0509371
:1014D000D6004093D5005093A00040939F00A8E20F
:1014E000EA2EF12C05C0E0E9EE16E1E0FE0698F4E4
:1014F000893288F0A7015695479556954795C701BB
:10150000841B950B9093D6008093D5009093A000F8
:1015100080939F0088E21092E2001092E100109206
:10152000D4001092D300682F29830E946D02812F6E
:101530000E947C02F092B200E092B100F09293001F
:10154000E0929200809184008093E500E091630036
:10155000F091640009952981211103C006C00E9401
:10156000A5090E94A7028823D1F30F90DF91CF91A4
:101570001F91FF90EF900895CF931BBA18BA15BA38
:10158000C1E0C2BB1ABA88E587BB8CE884BB82EF96
:1015900081BBF894C598BD9A97980E94FC0410BC32
:1015A0008CE089B91BB886E880BD88E98AB917B88C
:1015B00086E186B910BE85E085BF80EE8BBF14BE84
:1015C0008AE083BF83E68CBF82EA8FBD81E18EBD56
:1015D00082ED90E097BD86BD1ABC18BC60E080E04B
:1015E0000E94DA0289E085BD8EE683BD82E089BF74
:1015F00080918F00816080938F00C0936000789409
:10160000CF9108955D9BFECF8CB90895CF93DF9362
:10161000EC0102C00E94020B89918111FBCFDF9186
:10162000CF910895CF93DF93EC0102C00E94020B8B
:10163000FE01219684918111F9CFDF91CF91089518
:101640000F931F93CF93DF931F92CDB7DEB78C011B
:10165000040F111D05C069830E94020B698161504E
:10166000F80181918F01882311F06111F4CF0F905F
:10167000DF91CF911F910F910895CF93DF93CDB755
:10168000DEB761970FB6F894DEBF0FBECDBF462F11
:1016900050E0BE016F5F7F4F0E940C10CE0101969B
:1016A0000E94060B61960FB6F894DEBF0FBECDBF49
:1016B000DF91CF910895EF92FF920F931F93CF93F5
:1016C000DF93CDB7DEB761970FB6F894DEBF0FBEDC
:1016D000CDBFE42E462F50E08E010F5F1F4FB801A3
:1016E0000E940C10F80101900020E9F73197E01BEF
:1016F000F10B8E2D8E1BF82E18165CF4FA9480E3F5
:101700000E94020BF110FACFCE0101960E94060B47
:1017100006C0482F41956E2DC8010E94200B61968E
:101720000FB6F894DEBF0FBECDBFDF91CF911F91F2
:101730000F91FF90EF9008951F920F920FB60F92A6
:1017400011242F938F939F93EF93FF9390917C009D
:1017500080917D00292F281B2032A8F480917E00E3
:10176000E82FF0E02CB1E251FF4F20838F5F809390
:101770007E009F5F90937C00813210F010927E007B
:101780001092ED0006C08CB18093800081E08093C0
:10179000ED00FF91EF919F918F912F910F900FBED0
:1017A0000F901F9018951092ED0080917D00909100
:1017B0007C009817A1F08F5F80937D0080917F005F
:1017C000813210F010927F0090917F00E92FF0E0BD
:1017D000E251FF4F80819F5F90937F00089580E0EA
:1017E00008951092ED00FC0113C02F5F20937D003F
:1017F00090917F00A92FB0E0A251BF4F2C9121936F
:101800009F5F913218F490937F0002C010927F0086
:101810009E2F981B20917D0030917C00321711F093
:10182000961718F3892F089580917C0090917D0080
:10183000891B089557988CB18093810010927F0086
:1018400010927E0010927D0010927C001092ED00AC
:10185000579A08950E94BC0A0E9412058FE30E94C5
:101860007D0180E9682E772473948091D300909154
:10187000D400E091E100F091E200B3010E94D60FA4
:101880009B01CF01B3010E94D60F261B370BB90174
:1018900080E090E00E940D0E23E634E14DE153E438
:1018A0000E94D40E20E034E244E757E40E94790D10
:1018B0008B01D82FC92F9E01712F832F922F0E9449
:1018C000760D4B015C014090D3005090D4002090E5
:1018D000E1003090E200AE01602F712F852F942F30
:1018E0000E94370F6B017C01C091D300D091D400CE
:1018F0000091E1001091E2002BED3FE049EC50E453
:10190000C501B4010E94D40E4B015C01C101B301B9
:101910000E94D60F9B01C201B3010E94D60F260F71
:10192000371FB90180E090E00E940D0E9B01AC01D1
:10193000C501B4010E94D40E20E030E44CE154E42F
:101940000E94790D9B01AC0160E070E088EC92E4AC
:101950000E94110D4B015C012BED3FE049EC50E47E
:10196000C701B6010E94D40E6B017C01C801B3010E
:101970000E94D60F9B01CE01B3010E94D60F260F05
:10198000371FB90180E090E00E940D0E9B01AC0171
:10199000C701B6010E94D40E20E030E44CE154E4CB
:1019A0000E94790D9B01AC0160E070E0CB010E94C8
:1019B000110D8B01D82FC92F282D392D4A2D5B2DC4
:1019C000682D792D8A2D9B2D0E94D40E6B017C01F0
:1019D000CE01202F312F492F582FDE01602F712F7C
:1019E0008B2F9A2F0E94D40E9B01AC01C701B60128
:1019F0000E94120D0E94410F9B01AC010E94120D2A
:101A00009B01AC010E94120D20E030E0A9010E9470
:101A1000120D0E94E10D862F0E946D020E94A50901
:101A200024CF5058BB27AA270ED073C13CD130F029
:101A300041D120F031F49F3F11F41EF431C10EF476
:101A4000E095E7FB27C1E92F86D180F3BA1762073B
:101A500073078407950718F071F49EF59EC10EF484
:101A6000E0950B2EBA2FA02D0B01B90190010C01AE
:101A7000CA01A0011124FF27591B99F0593F50F4C6
:101A8000503E68F11A16F040A22F232F342F44271E
:101A9000585FF3CF469537952795A795F040539516
:101AA000C9F77EF41F16BA0B620B730B840BBAF0E6
:101AB0009150A1F0FF0FBB1F661F771F881FC2F751
:101AC0000EC0BA0F621F731F841F48F48795779565
:101AD0006795B795F7959E3F08F0B3CF9395880F1C
:101AE00008F09927EE0F979587950895EBD0E39529
:101AF00021C10CD00EC1DED040F0D5D030F021F4A1
:101B00005F3F19F0C7C0511149C1CAC024D198F331
:101B10009923C9F35523B1F3951B550BBB27AA276E
:101B200062177307840738F09F5F5F4F220F331FE0
:101B3000441FAA1FA9F333D00E2E3AF0E0E830D0AC
:101B400091505040E695001CCAF729D0FE2F27D0AF
:101B5000660F771F881FBB1F261737074807AB077D
:101B6000B0E809F0BB0B802DBF01FF2793585F4FF2
:101B70002AF09E3F510568F08DC010C15F3FECF325
:101B8000983EDCF3869577956795B795F7959F5FB7
:101B9000C9F7880F911D9695879597F90895E1E00B
:101BA000660F771F881FBB1F621773078407BA076A
:101BB00020F0621B730B840BBA0BEE1F88F7E095C5
:101BC0000895D1D088F09F5790F0B92F9927B75139
:101BD000A0F0D1F0660F771F881F991F1AF0BA95F1
:101BE000C9F712C0B13081F0D8D0B1E00895D5C0A6
:101BF000672F782F8827B85F39F0B93FCCF38695E7
:101C000077956795B395D9F73EF490958095709543
:101C100061957F4F8F4F9F4F0895E89409C097FBC0
:101C20003EF490958095709561957F4F8F4F9F4FB3
:101C30009923A9F0F92F96E9BB279395F6958795F7
:101C400077956795B795F111F8CFFAF4BB0F11F4BA
:101C500060FF1BC06F5F7F4F8F4F9F4F16C0882361
:101C600011F096E911C0772321F09EE8872F762F97
:101C700005C0662371F096E8862F70E060E02AF0D8
:101C80009A95660F771F881FDAF7880F96958795C4
:101C900097F9089597F99F6780E870E060E00895EC
:101CA0009FEF80EC089500240A9416161706180674
:101CB0000906089500240A94121613061406050650
:101CC0000895EECF50D0E8F3E894E0E0BB279F57AB
:101CD000F0F02AED3FE049EC06C0EE0FBB0F661FA7
:101CE000771F881F28F0B23A62077307840728F02D
:101CF000B25A620B730B840BE3959A9572F7803896
:101D000030F49A95BB0F661F771F881FD2F7904853
:101D1000F8C0092E0394000C11F4882352F0BB0F75
:101D200040F4BF2B11F460FF04C06F5F7F4F8F4FF3
:101D30009F4F0895EF93E0FF06C0A2EA2AED3FE02F
:101D400049EC5FEB80DEE5DF0F90039401FC9058D7
:101D5000E4E5F0E0E9C057FD9058440F551F59F0F5
:101D60005F3F71F04795880F97FB991F61F09F3F88
:101D700079F087950895121613061406551FF2CFB1
:101D80004695F1DF08C0161617061806991FF1CF01
:101D900086957105610508940895E894BB27662728
:101DA0007727CB0197F908950BD0B3CF7CDF28F0CC
:101DB00081DF18F0952309F06DCF72CF1124EECF9B
:101DC000CADFA0F3959FD1F3950F50E0551F629F96
:101DD000F001729FBB27F00DB11D639FAA27F00D84
:101DE000B11DAA1F649F6627B00DA11D661F829FAB
:101DF0002227B00DA11D621F739FB00DA11D621F90
:101E0000839FA00D611D221F749F3327A00D611DAC
:101E1000231F849F600D211D822F762F6A2F11248E
:101E20009F5750408AF0E1F088234AF0EE0FFF1FE1
:101E3000BB1F661F771F881F91505040A9F79E3F18
:101E4000510570F027CFAACF5F3FECF3983EDCF34B
:101E5000869577956795B795F795E7959F5FC1F755
:101E6000FE2B880F911D9695879597F908959F935E
:101E700029DF0F9007FCEE5F5DCF11F40EF410CF59
:101E80003EC071DFD0F39923D9F3CEF39F57550BA2
:101E900087FF43D00024A0E640EA90018058569581
:101EA000979528F4805C660F771F881F20F026170F
:101EB0003707480730F4621B730B840B2029312944
:101EC0004A2BA69517940794202531254A2758F7C1
:101ED000660F771F881F20F026173707480730F452
:101EE000620B730B840B200D311D411DA09581F7F2
:101EF000B901842F9158880F9695879508959F3F33
:101F000031F0915020F4879577956795B795880FB4
:101F1000911D9695879597F9089591505040660FB9
:101F2000771F881FD2F708959F938F937F936F93A6
:101F3000FF93EF939B01AC0137DFEF91FF9105D049
:101F40002F913F914F915F912FCFDF93CF931F93AD
:101F50000F93FF92EF92DF927B018C01689405C092
:101F6000DA2EEF012DDFFE01E894A5912591359140
:101F700045915591AEF3EF0166DDFE019701A80191
:101F8000DA9479F7DF90EF90FF900F911F91CF9146
:101F9000DF910895A29FB001B39FC001A39F01D01C
:101FA000B29F700D811D1124911D0895AA1BBB1BAA
:101FB00051E107C0AA1FBB1FA617B70710F0A61B49
:101FC000B70B881F991F5A95A9F780959095BC016A
:101FD000CD010895A1E21A2EAA1BBB1BFD010DC065
:101FE000AA1FBB1FEE1FFF1FA217B307E407F507C9
:101FF00020F0A21BB30BE40BF50B661F771F881FA5
:10200000991F1A9469F760957095809590959B013A
:10201000AC01BD01CF010895FB019F01E89442305E
:10202000C4F04532B4F44A3029F497FB1EF490957D
:1020300081959F4F642F77270E94D60F805D8A334A
:102040000CF0895D8193CB010097A1F716F45DE256
:1020500051931082C9010C942D10DC01FC01672FF3
:1020600071917723E1F7329704C07C916D9370836F
:0E2070006291AE17BF07C8F30895F894FFCF32
:0A207E00013701380139013A010071
:00000001FF
